:020000040800F2
:1040000048330020E94300086D4400086F4400086D
:104010007F44000883440008874400080000000033
:104020000000000000000000000000008B440008B9
:104030008D440008000000000F740008914400083F
:104040000344000803440008034400080344000834
:104050000344000803440008034400080344000824
:104060000344000803440008034400080344000814
:104070000344000803440008034400080344000804
:1040800003440008034400080344000803440008F4
:1040900003440008034400080344000803440008E4
:1040A00003440008034400080344000803440008D4
:1040B00003440008034400088F4400080344000838
:1040C00003440008034400080344000803440008B4
:1040D00003440008B34400082B450008B945000814
:1040E00003440008034400080344000800000000E3
:1040F00000000000000000000000000000000000C0
:104100000000000000000000034400080344000811
:1041100049460008DD46000803440008034400083F
:104120000344000803440008034400080344000853
:104130000344000803440008034400080344000843
:104140000344000803440008034400080344000833
:10415000DFF80CD004F080FC004800472D44000834
:10416000483300200CB50020019000909248006870
:1041700040F480309049086000BF8F48006800F428
:10418000003000900198401C0190009818B90198E7
:10419000B0F5A06FF1D18848006800F4003010B18C
:1041A0000120009001E000200090009801285CD1DF
:1041B0008248006840F010008049086008460068A6
:1041C00020F0030008600846006840F00200086024
:1041D0007948406878494860084640684860084621
:1041E000406840F4806048600846C06A74490840EE
:1041F0007149C8620846C06A724908436E49C8627C
:104200000846006840F08060086000BF6A480068A7
:1042100000F000600028F9D06748406820F47C1066
:10422000654948600846406840F4E8104860084620
:10423000006840F08070086000BF5F48006800F0D0
:1042400000700028F9D05C48406820F003005A490B
:1042500048600846406840F00200486000BF564889
:10426000406800F00C000828F9D10CBD10B5FFF72C
:1042700079FF10BD10B55048006840F001004E496C
:10428000086008464068504908404B494860084665
:1042900000684E490840484908600846006820F414
:1042A000802008600846406820F4FE004860084608
:1042B000006820F0A05008604FF47F008860002064
:1042C000C862FFF7D3FF42484249086010BDF0B50D
:1042D0000021002000230024002200250026364F64
:1042E0007F6807F00C0121B1042908D008294BD1BF
:1042F0000BE0394FDFF8E4C0CCF800704AE0364FED
:10430000DFF8D8C0CCF8007044E02B4F7F6807F48A
:104310007010294F7F6807F48033800C0D2801D07E
:10432000801C00E0062033B92D4F4743DFF8ACC0B6
:10433000CCF8007027E0204FFF6A07F480341E4F4E
:10434000FF6A07F00F077A1C44B9234FB7FBF2F757
:104350004743DFF888C0CCF8007014E0164FFF6ABE
:10436000C7F303177D1C144FFF6AC7F30327BE1C56
:10437000194FB7FBF5F77743B7FBF2F74743DFF881
:104380005CC0CCF8007005E0134FDFF850C0CCF8EB
:10439000007000BF00BF084F7F68C7F30317DFF846
:1043A00044C01CF807100D4F3F68CF40DFF82CC009
:1043B000CCF80070F0BD0000001002400020024068
:1043C00000F0FEFF140801000000FFF0FFFFF6FE02
:1043D0000040000808ED00E000127A000000002014
:1043E00000093D00040000200648804706480047B9
:1043F000FEE7FEE7FEE7FEE7FEE7FEE7FEE7FEE795
:10440000FEE7FEE7754200085141000810B504467A
:1044100003F0DDFB03F02CFA01F09BFA00F0D8FA70
:1044200000F013FF012002F00CFE10BD10B586B0A5
:1044300003F012FA01F0D5FE0320002140220A4BBE
:10444000CDE90132CDE9031001200346064AFC32D2
:104450000090AFF2470002F0CAFB044600BF01F033
:104460005AFF002006B010BD900300207047C048DE
:10447000006800F0010000B100BE00BFFEE700BF11
:10448000FEE700BFFEE700BFFEE7704770477047DA
:1044900010B502F097FF0446B6480078401CB549B5
:1044A0000870204602F092FF01F0B8FF01F0B9FE5B
:1044B00010BD70B5002402F085FF0546AD480078B8
:1044C000401CAC490870284602F080FF40F225519C
:1044D000A94804F0FBF928B3A74804F077F9C4B25F
:1044E000A648808868B97E2C1CD1A448847101201C
:1044F000A24948701020887008468088401C888037
:1045000010E09E4881888088401C9C4A9080901DC5
:10451000445410201146887008468088802801DBAA
:104520000020888001F07DFE70BD70B5002402F08F
:1045300049FF05468F480078401C8E490870284680
:1045400002F044FF40F225518D4804F0BFF980B3DA
:104550008B4804F03BF9C4B28848B0F88A0080B9AF
:10456000864880F88C40012180F88710102180F85F
:104570008810B0F88A00401C81B28048A0F88A10E8
:1045800017E07E48B0F88A10B0F88A00401C82B26A
:104590007A48A0F88A208C30445410218C3880F856
:1045A0008810B0F88A00802803DB00217348A0F847
:1045B0008A1001F036FE70BD70B5002402F002FFD3
:1045C00005466C480078401C6A490870284602F08D
:1045D000FDFE40F225516B4804F078F988B3694834
:1045E00004F0F4F8C4B26548B0F8100180B963482B
:1045F00080F81241012180F80D11102180F80E1170
:10460000B0F81001401C81B25C48A0F8101118E00D
:104610005A48B0F81011B0F81001401C82B2574847
:10462000A0F8102100F5897044541021534880F8F7
:104630000E11B0F81001802803DB00214F48A0F8CC
:10464000101101F0EEFD70BD70B5002402F0BAFE4D
:10465000054648480078401C46490870284602F044
:10466000B5FE40F22551484804F030F998B3464869
:1046700004F0ACF8C4B24148B0F8960190B97E2C71
:1046800029D13E4880F89841012180F893111021EA
:1046900080F89411B0F89601401C81B23748A0F818
:1046A000961118E03548B0F89611B0F89601401C04
:1046B00082B23248A0F8962100F5CC704454102103
:1046C0002E4880F89411B0F89601802803DB002171
:1046D0002A48A0F8961101F0A4FD70BD70B5002421
:1046E00002F070FE054623480078401C21490870FE
:1046F000284602F06BFE40F22551244804F0E6F80B
:1047000098B3224804F062F8C4B21C48B0F81C0206
:1047100090B97E2C29D1194880F81E42012180F8D9
:104720001912102180F81A12B0F81C02401C81B234
:104730001248A0F81C1218E01048B0F81C12B0F88B
:104740001C02401C82B20D48A0F81C2200F21E2060
:1047500044541021094880F81A12B0F81C0280282D
:1047600003DB00210548A0F81C1201F05AFD70BDC2
:10477000F0ED00E05503002000380140201C00202F
:104780000044004000480040004C00400050004001
:1047900038B502460B4600200090002107E0505C2F
:1047A000BDF80040204480B20090481C81B299427C
:1047B000F5DBBDF800004FF6FF7490FBF4F504FB49
:1047C000150080B20090BDF80000C043401C80B2CC
:1047D0000090BDF8000038BD10B50146002201F080
:1047E0000F03C1F303142344C1F303241819C3179F
:1047F00000EB13731B11A0EB0313DB435B1C9AB29A
:1048000002F00F0010BD10B502460B46002100203B
:1048100000BF1FE00001545C392C06DC545C302CD6
:1048200003DB545C303C204412E0545C462C06DC34
:10483000545C412C03DB545C373C204408E0545C5E
:10484000662C05DC545C612C02DB545C573C204434
:104850004C1CE1B29942DDDB10BD11B581B00021E5
:104860000020009001AA6B4600BF05E0545CD81CF4
:10487000401A0470481CC1B20429F7DB00981CBD23
:1048800001B581B000210020009001AA6B4600BF55
:1048900003E0505C5854481CC1B20429F9DB00986D
:1048A0000CBD01460020080A40EA012290B2704780
:1048B00070B502460C46FF25FF2309E012F8010BF4
:1048C00080EA03010648405C80EA05030548455C30
:1048D0002000A4F10106B4B2F0D143EA052070BD76
:1048E0005E8B00085E8C000808B5002000901CE07C
:1048F000002305221946184602F0BAFC684600F06B
:1049000012FF9DF8000018B9002000F0ECFE02E054
:10491000002000F00FFF9DF8010018B9012000F001
:10492000E2FE02E0012000F005FFE1E708B5002407
:10493000002600200090002531E031496A460868D1
:10494000002102F037FE054605B928E0A8797E2847
:1049500000D024E00026022405E0A81D005D3044BC
:10496000C6B2601CC4B2122CF7DBA81D005DB042B9
:1049700000D014E004F0AEF84FF48071214803F049
:1049800058FA00BF204FA4223946204800F0FEFF0D
:1049900000BF4FF480711B4803F049FA00BFCCE719
:1049A00015E04FF400411A4803F043FAFA230022BD
:1049B0001146104602F05CFC4FF40041144803F02D
:1049C00036FAFA2300221146104602F051FCE8E7BD
:1049D00010B50B230F4A0021AFF23B0002F0B0F8F4
:1049E00002230D4A0021AFF2BB0002F0A9F8082310
:1049F0000A4A0021AFF20F1002F0A2F810BD000029
:104A0000C01E0020000C0140900900200038014029
:104A1000000801408C0500208C0700208C09002034
:104A20002DE9F04706460F4690469946DDF820A04E
:104A300000240025012E02D0022E0DD105E0F94DF3
:104A40002878F94901EBC00407E0F64D6D1C287881
:104A5000F64901EBC00400E000BF00BF14B900201C
:104A6000BDE8F087277084F80180A9F1010188B2C0
:104A7000FFF717FF60805046FFF713FFA080062165
:104A80002046FFF715FFE0802878401C28700020A2
:104A9000E6E71CB50022009201920020002101E00F
:104AA0004A1CD1B201EB4102E14B33F81220002A3B
:104AB000F6DC61E000205BE000EB4002DC4B33F809
:104AC0001230421C02EB4202D94C34F812209342BD
:104AD0004CDD00EB4002234633F81220ADF80020F5
:104AE00000EB400203EB42025288ADF8022000EBDB
:104AF000400203EB42029288ADF80420421C02EB14
:104B0000420233F8122000EB400324F81320421C29
:104B100002EB4202234603EB4202528800EB4003C1
:104B200004EB43035A80421C02EB4202234603EB90
:104B30004202928800EB400304EB43039A80BDF8E5
:104B40000030421C02EB420224F81230BDF8023061
:104B5000421C02EB420204EB42025380BDF80430D7
:104B6000421C02EB420204EB42029380421CD0B290
:104B70004A1E8242A0DCD1B200299BDC1CBD10B5CC
:104B8000014600221FE014E001EB4100A84B03EBBB
:104B90004000408802EB4203A54C04EB43035B88D2
:104BA000984204D1A348405C401CA24B5854501C6E
:104BB000C2B202EB42009E4B33F810000028E3DC47
:104BC000481CC1B2002201EB4100994B33F81000A0
:104BD0000028D8DC98480170002010BDF0B50146CF
:104BE00000230024002200207BE000EB4006904FD1
:104BF00007EB46067688751EEE1705EB5676F6101F
:104C0000A5EBC606F3B201259D40ECB200EB4006D1
:104C100007EB46067688751EEE1705EB5676C6F34B
:104C2000C70201EBC10505EB0115844E06EB8505B6
:104C30002D5C002D29DD01EBC10505EB0115804E32
:104C400006EB85052D5C012D0DDD01EB81057D4E0B
:104C500006EB4505AD5C254301EB8106794F07EB7B
:104C60004606B5543BE001EBC10505EB0115744E5A
:104C700006EB85052D5C6D1C01EBC10606EB0116EC
:104C80006F4F07EB8606355429E0E543EBB201EBA5
:104C9000C10505EB01156C4E06EB850500EB4006E2
:104CA000634F07EB46067688AD5D624E365CB542D3
:104CB0000CDB01EB8105634E06EB4505AD5C1D4049
:104CC00001EB81065F4F07EB4606B554002501EB6B
:104CD000C10606EB01165A4F07EB86063554451CF4
:104CE000E8B2554D2D78A842FFF67FAF00200AE0CC
:104CF000002501EBC10606EB0116534F07EB8606B4
:104D00003554451CE8B22428F2DB00200AE00025D7
:104D100001EBC10606EB0116484F07EB860635543A
:104D2000451CE8B2444D2D78A842F0DBF0BD08B533
:104D3000002428E03B48407828B900230122194686
:104D4000184602F095FA002416E06423002211466A
:104D5000104602F08DFA3D484470344800EBC4011F
:104D600008223B4800F012FE6A46FA2139480068E2
:104D700001F0B6FD601CC4B22A484078A042E4DCD1
:104D80000120FFF72BFFD5E708B5002428E02548D0
:104D9000007828B9002301221946184602F068FA63
:104DA000002416E0642300221146104602F060FA47
:104DB000264804701C4800EBC4010822264800F075
:104DC000E5FD6A46FA212548006801F089FD601C6E
:104DD000C4B214480078A042E4DC0020FFF7FEFED5
:104DE000D5E72DE9FC5F07460D460026B146B046E3
:104DF000E81C0190012F02D0022F33D108E01348A4
:104E00000078174901EBC00090F8048000242AE0E4
:104E100001240E484078124901EBC00090F804804C
:104E200021E000003003002038100020C8110020CD
:104E3000CC000020BC1B002038030020F41A002006
:104E400064190020D81300202C1A002032030020FF
:104E500000480040280300200044004024030020B4
:104E60001E00002000BF00BFA87800EBD0714FEA01
:104E70006109002624E0019931F81600FFF711FDC1
:104E8000009003F099FD8346FA48005DFA4A02EB70
:104E9000C000C088F94A52F82010584603F05AFD65
:104EA000824603F08EFD81B2F54800EB8412A8F132
:104EB000010022F81010801C00F0FF08701CC6B220
:104EC0004E45D8DBBDE8FC9F2DE9F04104460E4677
:104ED00000230420012C00D10020022C00D101204D
:104EE000E44D2D5CE74F3F5CED1BE9B2002221E170
:104EF00000EBC00505EB0015E34F07EBC50535F8E2
:104F00001150154405EB4505E04F17F8155000EB1F
:104F1000C00707EB0017DFF878C30CEBC70717F8DB
:104F20001170ED1BEBB24FEAE37C03EB5C7C4FEAC4
:104F3000EC0C0CF1030C16F80CC04FEAE37803EB11
:104F400058784FEAE808A3EBC8084CFA08FC0CF0C4
:104F5000010CBCF1000F76DD00EBC00505EB001580
:104F6000C94F07EBC50535F81150154405EB45054C
:104F7000C64F07EB4505AD88002D4CDD002500EB45
:104F8000C00707EB0017DFF800C30CEBC70737F8C3
:104F90001170174400EBC00C0CEB001CDFF8F4821E
:104FA00008EB8C0C0CF8075000EBC00505EB001566
:104FB000B54F07EBC50535F81150154405EB450510
:104FC000B24F07EB45056D8800EBC00707EB0017F4
:104FD000DFF8C4C20CEB87077D5D6D1C00EBC007DA
:104FE00007EB0017DFF8A0C20CEBC70737F811700A
:104FF000174407EB4707DFF894C20CEB47077F889D
:1050000000EBC00C0CEB001CDFF88C8208EB8C0C66
:105010000CF807508CE0012500EBC00707EB0017E8
:10502000DFF864C20CEBC70737F81170174400EBC8
:10503000C00C0CEB001CDFF85C8208EB8C0C0CF84D
:10504000075075E0FFE700EBC00505EB00158E4F3C
:1050500007EBC50535F81150154405EB45058B4F99
:1050600007EB4505AD88002D16DD012500EBC007D7
:1050700007EB0017DFF810C20CEBC70737F8117009
:10508000174400EBC00C0CEB001CDFF8088208EBA7
:105090008C0C0CF807504BE0002500EBC00707EB29
:1050A0000017DFF8E4C10CEBC70737F8117017449D
:1050B00000EBC00C0CEB001CDFF8D88108EB8C0C6B
:1050C0000CF8075000EBC00505EB00156E4F07EB21
:1050D000C50535F81150154405EB45056B4F07EB39
:1050E00045056D8800EBC00707EB0017DFF8A8C186
:1050F0000CEB87077D5D6D1C00EBC00707EB00170D
:10510000DFF884C10CEBC70737F81170174407EBC1
:105110004707DFF878C10CEB47077F8800EBC00C2E
:105120000CEB001CDFF8708108EB8C0C0CF80750BE
:10513000551CEAB200EBC00505EB0015574F07EB15
:1051400085056D5C95423FF7D3AEBDE8F08170B543
:10515000044600251CB945F00405284670BD207A98
:10516000C11CA01DFFF7A4FB227AA11D1144B1F8B8
:105170000310884203D045F003052846EEE7284691
:10518000ECE708B50020009000242BE044496A4673
:105190008868002102F00EFA04462046FFF7D7FF88
:1051A00020B14048006801F04DFC1BE03E484078CB
:1051B000401C3D494870E079022802D004280AD1F9
:1051C00004E02078A11DFFF77FFE05E02078A11DF7
:1051D000FFF707FE00E000BF00BF3248006801F0A3
:1051E00031FC00BFD2E708B50020009000242BE07E
:1051F0002B496A464868002102F0DCF90446204643
:10520000FFF7A5FF20B12948006801F01BFC1BE057
:1052100025480078401C24490870E079022802D013
:1052200004280AD104E02078A11DFFF74DFE05E017
:105230002078A11DFFF7D5FD00E000BF00BF1B488F
:10524000006801F0FFFB00BFD2E7F8B5002600249C
:105250000025002001F0B7FA14490860002001F091
:10526000B2FA10490860FFF714FC0020FFF787FC32
:1052700000BF33E0320300201E000020C0000020E9
:10528000581300202C0300207C150020CC000020A7
:10529000EC130020F41A00202C1A00209C18002087
:1052A000C01E002028030020340300202403002017
:1052B000FE4800EBC6004088FC4A009032F83630C9
:1052C000FB4A115DFB4A105D0422FFF7A9FBFA4877
:1052D000005D401CF8490855701CC6B2F34830F810
:1052E00036000028E4DC002606EB4600F34931F8DE
:1052F000100004EBC40101EB0411F14A02EBC101FF
:1053000021F8150004EBC40000EB0410ED4901EB9B
:10531000C00020F81560AEE004EBC40000EB041000
:10532000E74901EBC00030F8150006EB4601E34AFF
:1053300032F81110081A401C40284FDA04EBC40060
:1053400000EB0410E04901EB8000405D401C04EBE1
:10535000C40101EB0411DC4A02EB81014855701CC9
:1053600000EB4000D54931F8100098BB04EBC400B5
:1053700000EB0410D24901EBC00030F8150006EB39
:105380004601CE4A32F81110081A401C04EBC40141
:1053900001EB0411CD4A02EBC10121F8150004EB29
:1053A000C40000EB0410114601EBC00030F81500FA
:1053B00004EBC40202EB0412C14F07EBC2020090DF
:1053C00032F81530BA4A115DBA4A105D0222FFF771
:1053D00027FB58E0FFE7701CC6B24CE004EBC400AA
:1053E00000EB0410B64901EBC00030F81510701E38
:1053F00000EB4000B14A32F81000401A401C04EBA8
:10540000C40101EB0411B14A02EBC10121F81500FE
:1054100004EBC40000EB0410114601EBC00030F8AF
:10542000150004EBC40202EB0412A54F07EBC20205
:10543000009032F815309E4A115D9E4A105D02229E
:10544000FFF7EEFA681CC5B206EB46009B4931F83F
:10545000100004EBC40101EB04113A4602EBC10158
:1054600021F8150004EBC40000EB0410954901EB92
:10547000C00020F8156006EB4600904931F8100096
:1054800000283FF749AF00BF01240026002515E0A2
:10549000864800EBC6004088844A009032F83630D7
:1054A000834A115D834A105D0422FFF7B9FA8248EE
:1054B000005D401C80490855701CC6B27B4830F81E
:1054C00036000028E4DC002606EB46007B4931F874
:1054D000100004EBC40101EB0411794A02EBC10195
:1054E00021F8150004EBC40000EB0410754901EB32
:1054F000C00020F81560AEE004EBC40000EB04101F
:105500006F4901EBC00030F8150006EB46016B4A0D
:1055100032F81110081A401C40284FDA04EBC4007E
:1055200000EB0410684901EB8000405D401C04EB77
:10553000C40101EB0411644A02EB81014855701C5F
:1055400000EB40005D4931F8100098BB04EBC4004B
:1055500000EB04105A4901EBC00030F8150006EBCF
:105560004601564A32F81110081A401C04EBC401D7
:1055700001EB0411554A02EBC10121F8150004EBBF
:10558000C40000EB0410114601EBC00030F8150018
:1055900004EBC40202EB0412494F07EBC202009075
:1055A00032F81530424A115D424A105D0222FFF77F
:1055B00037FA58E0FFE7701CC6B24CE004EBC400B9
:1055C00000EB04103E4901EBC00030F81510701ECE
:1055D00000EB4000394A32F81000401A401C04EB3E
:1055E000C40101EB0411394A02EBC10121F8150095
:1055F00004EBC40000EB0410114601EBC00030F8CE
:10560000150004EBC40202EB04122D4F07EBC2029B
:10561000009032F81530264A115D264A105D0222AC
:10562000FFF7FEF9681CC5B206EB4600234931F8C6
:10563000100004EBC40101EB04113A4602EBC10176
:1056400021F8150004EBC40000EB04101D4901EB28
:10565000C00020F8156006EB4600184931F810002C
:1056600000283FF749AF00BF322300221146104601
:1056700001F0FEFD0423164A0021AFF2954001F02F
:105680005FFA0523134A0021AFF2095001F058FADE
:105690000623114A0021AFF60F1001F051FA07233B
:1056A0000E4A0021AFF679101AE000001E0000201B
:1056B0001C000020360300202C030020CC0000201A
:1056C000EC1300207C1500209C1800200C170020F3
:1056D000340C0020340E0020340F00203410002041
:1056E00001F02EFAF8BD10B5002100BF07E000223E
:1056F0006D4B03EB801323F811204A1CD1B22029F3
:10570000F5DB012200EB8003684C04F81320002233
:1057100000EB800304EB43035A7000EB800304EBBF
:1057200043039A7010BD6249097801706049497855
:105730004170704700215E4A115400EB80015B4AC2
:1057400012F8111001F0FE0100EB8002574B03F834
:10575000121070470246002106E0534830F811004D
:1057600022F81100481CC1B22029F6DB202109E0F3
:10577000A1F120004C4B403333F8100022F8110007
:10578000481CC1B24029F3DB0020704701460022CB
:1057900000BF04E04548805C8854501CC2B2032A14
:1057A000F8DB0020C870087148718871C8710879E9
:1057B0003E4B9B7A40EA0310087148793B4B9B7A39
:1057C00040EA231048714B793848C07A43EA001008
:1057D00048718B793548C07A43EA201088718B79FB
:1057E0003248007B43EA00108871CB792F48007B58
:1057F00043EA2010C8710020704701469820405CA1
:1058000000F00400012803D1302081F88B0002E071
:10581000312081F88B009B20405C00F004000128BF
:1058200003D130228C20425402E031228C20425499
:1058300091F89700002808DC9820405C20F00400D4
:10584000002802DC9A20405C08B1012000E0002022
:10585000002802DD322081F88B009A20405C00286D
:1058600008DC9B20405C20F00400002802DC9C2027
:10587000405C08B1012000E00020002802DD322257
:105880008C20425491F8970000F0010010B13320B1
:1058900081F88B009A20405C00F0010010B13322A7
:1058A0008C2042540020704758130020D813002049
:1058B0003403002000244BE001230022114610464F
:1058C00001F0D6FC002441E004EB440000EB84101E
:1058D000414901EB40004078B0B304EB440000EBD9
:1058E000841001EB40008078401E40B204EB44017C
:1058F00001EB8411384A02EB4101887004EB44004B
:1059000000EB8410114601EB400090F902000028E2
:105910001ADC002004EB440101EB841102EB41018D
:10592000487004EB440101EB841102EB41018880D3
:1059300004EB440202EB8412274B03EB4201274A9B
:1059400052F8240001F0F4FE601CC4B2052CBBDB4D
:10595000B2E710B5002400BF0EE0002001F09DFD6D
:105960001E4941F8240004EB440000EB84101A495E
:1059700001F81040601CC4B2052CEEDB0323184A6A
:105980000021AFF2CF0001F0DBF810BD2DE9F041AE
:1059900007460D4616464FF00008002440213846C1
:1059A00002F08BFF00BF11E0295D384602F00AFFCC
:1059B00005E0012300221146104601F059FC402168
:1059C000384602F06DFF0028F3D0641CB442EBD3DC
:1059D000A0464046BDE8F081201C0020C01E0020EB
:1059E000D42000204348802102E0491E002204C048
:1059F0000029FAD1404A414B1A60704770477047FE
:105A0000704770477047704770B5044610464FF0B6
:105A100080750560051F28462C60394E051F2846F5
:105A20002E604FF01236051F28462E604FF00336C9
:105A3000051F28462E604FF00236051F28462E60AF
:105A40007610051F28462E60051F284629604FF056
:105A50001136051F28462E604FF01036051F2846C8
:105A60002E604FF00936051F28462E604FF008368D
:105A7000051F28462E604FF00736051F28462E606A
:105A80004FF00636051F28462E604FF00536051FDD
:105A900028462E604FF00436051F28462E6070BD44
:105AA00070477047704710B501F08CFC04461548EC
:105AB0000078401C13490870204601F087FC00F074
:105AC000ADFC00F0AEFB10BD411E4FF0E022516175
:105AD000FF210D4A11704FF0E021096941F00501E5
:105AE0004FF0E02211611146096941F00201116194
:105AF00070470000D8200020D42200203C03002062
:105B0000E37100085503002023ED00E0014600206A
:105B100002E0491C421CD0B20A78002AF9D1704731
:105B20002DE9F04105460E4614460027F848007856
:105B300020B1112020700020BDE8F08128780128D4
:105B400008D0022807D0032802D0042804D100E09E
:105B500000BF00BF00BF03E0012020700020EBE782
:105B600000BF01F02FFC0746286930603068FFF75E
:105B7000CDFF8046384601F029FC002020704046C9
:105B8000DAE72DE9F04105460E4614460027E048C5
:105B9000007818B112202070BDE8F0812878012823
:105BA00008D0022807D0032802D0042804D100E03E
:105BB00000BF00BF00BF02E001202070ECE700BF83
:105BC00001F000FC07462E61384601F0FFFB002083
:105BD000207000BFE0E7F0B5024612F8304F95782C
:105BE0005678303A0B4618680FE000F10B073F5D1E
:105BF000B74300F10B0C0CF8047067463F5D17B912
:105C0000877AAF4387721B1D18680028EDD1F0BD5D
:105C1000C049C14A1278885CC049095CBD4A515CE0
:105C200001EBC001BE4A1170704710B5002401F0AD
:105C3000C9FB0446B6480078F8B9BA480078E0B91C
:105C4000FFF7E6FFB848B649097850F82100B74990
:105C50000860B3480078B649097888420DD0B34847
:105C60000068406B401CB14909684863B14800684E
:105C7000401CB049086001F0C0FB204601F0A6FBC3
:105C800010BD70B501460024AB4D2D68EC61AA4CE7
:105C9000246821620B4618681BE0A74C246894F81E
:105CA000305000F10B04645DA34D2D6895F8315020
:105CB0002C43A14D2D6895F8306000F10B05AC55D3
:105CC000847A9D4D2D6895F832502C4384721B1DAB
:105CD00018680028E1D1984C246894F830208F4C43
:105CE000A45C954D2D6895F83150AC438B4DAC5468
:105CF0002C46A45C44B9904C246894F83250864CED
:105D00002478AC43844D2C7070BD2DE9FF4F83B0D7
:105D100080460E461546109F002001903060C14617
:105D2000D9F8004018E02078012807D0032804D0D3
:105D3000042805D0052802D103E008E007E000BFF1
:105D400000BF01203870002007B0BDE8F08F00BF11
:105D500009F10409D9F80040002CE4D16C4800781E
:105D600018B1022038700020EEE76E48007818B1B4
:105D70000D2038700020E7E700200290824683461D
:105D8000C146D9F8004001F01DFB01903CE02078AD
:105D9000012818D0032804D0042826D0052823D1B0
:105DA00024E0208960B12089401E208110C6012096
:105DB0000290002001C50AF101001FFA80FA01E0FB
:105DC0004BF0010B1BE0606858B1606801C5002012
:105DD000606010C6012002900AF101001FFA80FAEB
:105DE00001E04BF0020B0AE000BF00BF019801F098
:105DF000EDFA00203060012038705046A4E700BF63
:105E000009F10409D9F80040002CC0D102980128FA
:105E100008D100203060019801F0D8FA00203870D5
:105E2000504691E74448006890F82C004BF0800100
:105E300008434149096881F82C0000203E4909685F
:105E400081F82D003C490698096888624046FFF7B2
:105E500018FF019801F0BAFAFFF7E7FE01F0B2FA75
:105E600001903548006890F82D0020B1012819D024
:105E7000022816D100E000BF2F480068C4692CB189
:105E800010C6002030604FF0010A09E001202A49C5
:105E9000096881F82D00414627480068FFF79BFEFE
:105EA00006E000BF414624480068FFF794FE00BFAB
:105EB00000BF2148006890F82D0020B101283ED095
:105EC00002283BD11FE0207806280DD2DFE800F041
:105ED0000C0607030D0E002001C510E000BF164898
:105EE0000068406A01C50AE000BF00BF019801F0E8
:105EF0006DFA0020306001203870504624E700BF62
:105F00000020387020E0002001C50E2038701BE012
:105F1000550300205E8D0008590300205A0300201D
:105F20005803002056030020582900206C0300204D
:105F300057030020400300206403002000BF00201E
:105F400001C50A20387000BF00BF0020FD49096864
:105F500081F82C00FB49096881F82D00F94909688E
:105F6000C861F84909680862F649096848620198F9
:105F700001F02CFA5046E7E67CB5002514E06946AE
:105F8000284601F01EF8064666B9EF4850F825404D
:105F900044B1012C06D0D4E9020100EB8100206459
:105FA00001986064681CC5B2122DE8DD7CBD00BF9D
:105FB00000BF02E0C82001F029F9E4480078002879
:105FC000F8D0E34800686421B0FBF1F0E0490860D4
:105FD0000846006828B90020DE490870FF2001F05B
:105FE00030F801F0EFF90446D948006864214843CD
:105FF000D9490860204601F0E9F900BF01F0E2F953
:106000000446D5480068D54908600020D249086098
:10601000204601F0DBF9D1480068CD490968B0FBA2
:10602000F1F0C0F16400CB490870FFF7ECFCFFF71A
:10603000A3FF642001F0EAF8E0E700B587B0032091
:1060400000218022C64BCDE90132CDE903104FF685
:10605000FE701123C34A0090AFF2AD0000F0C7FDFF
:1060600006AAC1A1112000F014FF07B000BD002452
:1060700000BF00BF01F0A6F90446B7480068401C05
:10608000B5490860204601F0A1F9FFF7BAFCF1E735
:1060900000B587B0032000218022B74BCDE9013243
:1060A000CDE903104FF6FF701223B44A0090AFF20F
:1060B000410000F09CFD06AAB1A1122000F0E9FE0B
:1060C00007B000BD04E0002200F8012B4A1E91B287
:1060D0000029F8D1704770B54FF42071AC48FFF734
:1060E000F1FF002411E0601C85B204EB8400A84994
:1060F00001EB800305EB850001EB800600201870A2
:106100005E60A4A01861601C84B21F2CEBD304EB6A
:1061100084009F4901EB80030020187058609DA007
:10612000186108469C49086070BD70B54FF4B461B1
:106130009A48FFF7C7FF4C218348FFF7C3FF0023AE
:106140000FE0581CC5B203EB8300944901EB001427
:1061500005EB850001EB001666618EA0A064581C5B
:10616000C3B2112BEDD303EB83008C4901EB001478
:106170000020606187A0A0640020894908608748EA
:106180008849086070BD0021874A1170002004E032
:106190000021864A1154411CC8B20328F8D30021BB
:1061A000834A1170834A1170834A1160654A1160F5
:1061B0007047002081490860814908708149087052
:1061C0008149087081490870814908606249086006
:1061D000624908605E4908605C4908707D49087042
:1061E000704710B5FFF7FEFBFFF7E3FFFFF7CBFFAC
:1061F000FFF79BFFFFF76FFFFFF74AFFFFF71DFF5A
:10620000FFF7FCFB10BD71480078012808D16C48ED
:106210000078FF2804D26A480078401C684908705A
:10622000704710B5002469480078012830D101F08A
:10623000C9F804466248007820B161480078401EE1
:106240005F4908705E480078F8B95E480078E0B9A8
:10625000FFF7DEFC3C485749097850F821005649C1
:106260000860544800785249097888420DD0524855
:106270000068406B401C50490968486354480068F6
:10628000401C5349086001F0BDF8204601F09EF81B
:1062900010BD10B500244D480078012811D101F03F
:1062A00091F804464648007840B946480078FF28EF
:1062B00004D244480078401C42490870204601F04E
:1062C00085F810BD10B5002440480078012821D180
:1062D00001F078F804463A480078C0B939480078A7
:1062E00088B138480078401E364908700846007862
:1062F00028B9204601F06AF8FFF797FC0AE020462B
:1063000001F064F806E0204601F060F802E0204663
:1063100001F05CF810BD10B52C48007888B9FFF783
:1063200077FC2448007822490870074821490978F9
:1063300050F82100204908600846006801490860BB
:106340004AE04BE064030020582900205403002059
:106350004C0300204803002060030020500300206D
:10636000582500205427002075432F4F532D4949AD
:106370002053746174000000582700205429002025
:1063800075432F4F532D49492049646C6500000027
:10639000D82200203F00000044030020A429002050
:1063A0007003002068030020590300205A030020D6
:1063B00057030020580300206C03002078030020BE
:1063C00055030020560300205E0300205D030020DB
:1063D000400300207503002000F0FBFF10BD10B546
:1063E0000024022000F012FF00F0ECFF0446002021
:1063F000DC490860204600F0E9FF642000F006FF59
:1064000000F0E0FF0446D7480068D7490860012043
:10641000D6490870204600F0D9FF10BD70B500269F
:10642000FFF740FB00F0CEFF0646D1480068401C55
:10643000CF490860304600F0C9FFCE4800780128F7
:1064400053D1CD48007820B1012804D0022809D1C9
:1064500003E001250BE0002509E001250120C649E4
:10646000087004E001250020C349087000BF00BF88
:1064700005B970BDC148046833E000F0A3FF0646CB
:10648000A06A50B3A06A401EA062A06A28BB94F81C
:106490002C0000F0370040B114F82C0F00F0C800B9
:1064A0002070012060702C3C02E0002084F82D0058
:1064B00094F82C0000F0080078B93034A078B04986
:1064C00009780843AE4908702078AE49085C6178C5
:1064D000084314F83019AB4A50546469304600F050
:1064E00075FF94F82E001228C7D100BFC1E747F20C
:1064F00017207047704710B590F8302001F10B035A
:106500009B5C90F83140A34301F10B04A354234654
:106510009B5C23B98B7A90F83240A3438B7210BDF9
:106520002DE9F04F05460F4690469946A87A9649C0
:106530000E5C05F10B00805D11F800B00BEBC6009E
:1065400000F0FF0A914850F82A400020243460608F
:106550002760207A20EA0800207284F80990207AC7
:10656000243C00F0080068B994F8320084490978A6
:106570000843834908708348805D94F831100843CC
:106580008049885529462046FFF7B5FF206A20B18B
:106590002046216AFFF71FFBE5615046BDE8F08FFA
:1065A00010B57B4A1268D061794A126892F830308F
:1065B00000F10B02D25C764B1B6893F831301A4322
:1065C000734B1B6893F8304000F10B031A55827A25
:1065D0006F4B1B6893F832301A4382726C4A126810
:1065E00092F83010674A525C694B1B6893F831305F
:1065F0009A43644B5A541A46525C42B9644A126830
:1066000092F832305E4A12789A435D4B1A7010BD90
:10661000014600228A72002005E0002301F10B02EE
:106620001354421CD0B20328F7D3704705E011F889
:10663000013B00F8013B531E9AB2002AF7D1704784
:106640002DE9F84F05460F4690469946DDE90AAB1D
:106650000020009000F0B6FE00904E480468002C28
:106660007AD054F8140F4B490860009800F0AEFE41
:1066700044F8147CA576002020766076606144F8AA
:1066800010BC44F808AC44F80C8C0C9824F8040CAA
:1066900024F8029C0020E077E810207705F007003E
:1066A000E076217F01208840A077E17E01208840AC
:1066B00060770020A060E06020612062A0626062DC
:1066C000E0622063AFF234306063143C002606E0E1
:1066D000002104F14C0040F82610701CC6B2012EB7
:1066E000F6DB2046FFF7DDF900F06CFE009027484E
:1066F00040F82540009800F069FE2046FFF77FF93A
:1067000000F060FE00901D48006860610020A061FC
:106710001A48006810B1194800688461174804607D
:106720003034A07816490978084315490870207854
:106730001449085C6178084314F83019114A505420
:1067400015480078401C14490870009800F03EFE7F
:106750000020BDE8F88FFFE7009800F037FE4220E8
:10676000F7E70000600300204C03002054030020E2
:10677000780300205D0300207403002070030020D4
:10678000590300205A0300205E8D0008582900207C
:1067900064030020680300205E03002070B50446F7
:1067A00000262078032801D0002070BD00F00AFEEA
:1067B0000646258915B12089401E2081304600F00B
:1067C00005FE2846F1E770B505460026D748007853
:1067D00008B1002070BD00F0F5FD0646D4480468FD
:1067E000006820B1D24800684068D149086030464E
:1067F00000F0ECFD4CB1032020702581002060608A
:10680000CCA020612046FFF703FF2046E2E72DE9F8
:10681000F0470446884615464FF0000920780328C3
:1068200004D0012028702046BDE8F087BF480078DA
:1068300018B10F2028702046F6E700F0C3FD81460E
:10684000A07A08B1012700E00027B8F1000F03D0BB
:10685000B8F1010F3AD119E08FB9B6A0206100203C
:106860002070B3480068606000202081B048046058
:10687000484600F0ABFD00202870002605E04846A1
:1068800000F0A4FD49202870264626E005E00223FA
:10689000012200212046FFF743FEA07A0028F6D10E
:1068A000A4A0206100202070A14800686060002042
:1068B00020819F480460484600F088FD012F01D1E7
:1068C000FFF7B3F900202870002606E0484600F0E4
:1068D0007DFD07202870264600BF00BF3046A3E795
:1068E0002DE9F04105460E46144600272878032876
:1068F00003D001202070BDE8F0818C48007810B1F1
:1069000002202070F7E78C48007810B10D2020702D
:10691000F1E700F057FD0746288940B12889401E5D
:106920002881384600F052FD00202070E3E78348BC
:10693000006890F82C0040F001008049096881F857
:106940002C0000207D49096881F82D007B480068F3
:1069500086622846FFF724FE384600F037FDFFF731
:1069600064F900F02FFD07467448006890F82D0088
:1069700020B1012809D0022806D102E000202070B1
:106980000BE00E20207008E000BF29466B4800682D
:10699000FFF7B1FD0A20207000BF00BF002067494B
:1069A000096881F82C006549096881F82D00634960
:1069B0000968C861614909680862384600F006FD47
:1069C00000BF98E72DE9F04104460F4615464FF009
:1069D00000082078032804D0012028700020BDE89A
:1069E000F08100F0EFFC8046A07A20B300267FB152
:1069F000012F0CD107E00223012200212046FFF7DE
:106A00008FFD701CC6B2A07A0028F4D109E000BF47
:106A10000223012200212046FFF782FD701CC6B22E
:106A200000BF00BF404600F0D1FCFFF7FEF80E208B
:106A300028703046D3E7404600F0C8FC002028709C
:106A400000BFCCE770B5044600252078032801D0AC
:106A5000012070BD00F0B6FC0546A07A60B10023AD
:106A6000012219462046FFF75BFD284600F0AEFCE8
:106A7000FFF7DBF80020ECE720894FF6FF71884232
:106A800007D22089401C2081284600F09FFC00206E
:106A9000DFE7284600F09AFC3320DAE72DE9F047DB
:106AA00004460D464FF000092078032802D001204B
:106AB000BDE8F08700F086FC8146A07A687104F199
:106AC0000B0705F10208002605E017F8010B08F88E
:106AD000010B701CC6B2032EF7D3208928804846CC
:106AE00000F074FC0020E3E72DE9F04104460E4677
:106AF000154600272078032803D001202870BDE820
:106B0000F08100F05FFC074600202870208908B162
:106B1000268105E0A07A08B9268101E04920287085
:106B2000384600F053FC00BFE9E7000055030020A1
:106B3000440300203F0000005603002064030020AF
:106B40002DE9FE4F06460F4690461C464FF00009C1
:106B500000F038FC8146FE48007828B1484600F035
:106B600035FC3C20BDE8FE8FFA4850F8240060BB9D
:106B70000120F84941F82400484600F027FC002392
:106B8000424639463046FEF73FFF824600200090DD
:106B9000019003460246514602902046FFF750FD01
:106BA000054635B9EC48007801280CD1FFF73DF8CF
:106BB00009E000F007FC81460020E64941F8240086
:106BC000484600F003FC2846CCE7484600F0FEFBB0
:106BD0002820C7E702F0010343B102F002032BB102
:106BE00002E0491E002308C00029FAD170472DE9B0
:106BF000F04F85B081468A4693461C46DDE90F7802
:106C0000129D0020039000F0DDFB0390D048007837
:106C100030B1039800F0DAFB3C2005B0BDE8F08FFE
:106C2000CC4850F8240088BB0120CA4941F8240010
:106C3000039800F0CBFB2A4641463846FFF7CAFFCF
:106C40002B465A4651464846FEF7DEFE0490119800
:106C5000CDE9008002953A4620460E9B0499FFF745
:106C6000EFFC064636B9BC48007801280CD1FEF787
:106C7000DCFF09E000F0A6FB03900020B54941F8D5
:106C80002400039800F0A2FB3046C6E7FFE7039814
:106C900000F09CFB2820C0E770B505460026AC48F4
:106CA000007808B1402070BD122D01D13E20FAE7D6
:106CB00000F088FB0646FF2D03D1A848006890F835
:106CC0002E50A44850F8254024B9304600F07EFBF1
:106CD0004320E8E7012C04D1304600F077FB3D204B
:106CE000E1E714F8300F9E49085C61788843217809
:106CF0009B4A505414F830091146085C30B994F896
:106D0000321098480078884396490870E06918B1B5
:106D10002046E169FFF7EFFB206A18B12046216A9F
:106D2000FEF759FF0020A06284F82C0084F82D00A3
:106D30008D480078FF2804D28B480078401C8A498F
:106D40000870304600F042FBFFF7D4FB00F03AFB3E
:106D500006468548007820B183480078401E824965
:106D600008702046FEF74CFE80480078401E7F49A0
:106D700008700020774941F82500A06930B900204B
:106D8000616988617A496069086005E0D4E90501B4
:106D90004861D4E9051088617648006860617548EB
:106DA000046075A0A064304600F010FB6A480078CB
:106DB000012801D1FEF739FF002074E72DE9F041E9
:106DC00004460027122C02D13E20BDE8F081FF2CA2
:106DD0000BD100F0F7FA07466048006890F833607E
:106DE000384600F0F3FA3046EFE700F0EBFA0746DA
:106DF000584850F8245025B9384600F0E7FA4320A7
:106E0000E3E7012D04D1384600F0E0FA3D20DCE74D
:106E10003F2085F83300384600F0D8FA0020D4E748
:106E20002DE9F04706460F4614464FF00008484843
:106E3000007820B1112020700020BDE8F08700F01C
:106E4000C1FA8046FF2E03D14448006890F82E60B6
:106E5000404850F8265035B9404600F0B7FA432074
:106E600020700020E9E7012D06D1404600F0AEFA7F
:106E7000432020700020E0E7A86C38603868FEF7F7
:106E800045FE8146404600F0A1FA002020704846A9
:106E9000D3E72DE9F04106460F4614464FF00008AF
:106EA0002B48007818B112202070BDE8F08100F066
:106EB00089FA8046FF2E03D12848006890F82E609A
:106EC000244850F826502DB9404600F07FFA432060
:106ED0002070EAE7012D05D1404600F077FA432003
:106EE0002070E2E7AF64404600F070FA00202070A6
:106EF00000BFDAE770B50546002600F063FA0646E3
:106F0000144850F8254024B9304600F05FFA462076
:106F100070BD012C04D1304600F058FA4320F7E749
:106F200094F82C0000F0080040B314F82C0F00F087
:106F3000F700207014F82C0998BBA06A90BB30347D
:106F4000A07808490978084306490870207816E0B7
:106F500055030020582900205D0300206403002011
:106F60005A03002059030020560300205E0300202E
:106F700070030020680300203F0000001CE09D49D2
:106F8000085C6178084314F830199A4A5054304626
:106F900000F01CFA9848007801280BD1FEF745FE56
:106FA00008E004E0FFE7304600F010FA02E0304667
:106FB00000F00CFA0020ABE7304600F007FA44205E
:106FC000A6E72DE9F04707460D464FF0000A0020DE
:106FD0002860686000F0F6F98246FF2F03D18748E9
:106FE000006890F82E70864850F827402CB950461B
:106FF00000F0ECF94320BDE8F087012C04D15046A5
:1070000000F0E4F94320F6E7207C00F0010020B90D
:10701000504600F0DBF94520EDE70026D4F80C904F
:10702000D4F80880504600F0D1F900E0761C58F8FA
:10703000041B0029FAD02E60A9EB0600686000202E
:10704000D9E72DE9F04105464FF0000800F0BAF904
:107050008046FF2D05D16948006890F82E50012622
:1070600008E06648006890F82E00A84201D1012689
:1070700000E00026624850F825402CB9404600F058
:10708000A5F94820BDE8F081012C04D1404600F06C
:107090009DF94320F6E794F830705648C05D94F8A7
:1070A000311088435349C8550846C05D30B994F83B
:1070B00032105448007888435249087094F82C00E4
:1070C00040F0080084F82C00404600F07FF9012EC3
:1070D00001D1FEF7AAFD0020D4E72DE9F0410546D5
:1070E0000E46002700F06EF90746FF2D03D14348F6
:1070F000006890F82E50424850F825402CB9384688
:1071000000F064F92920BDE8F081012C04D1384653
:1071100000F05CF94320F6E7502221463046FFF7A5
:1071200085FA384600F052F90020ECE72DE9F047E7
:1071300004460E4617464FF0000900F043F9814619
:10714000FF2C02D12D48056802E02D4850F824504C
:1071500005F14C0050F82680484600F037F9002031
:1071600038704046BDE8F08770B50446002600F050
:1071700029F9064624480078012806DB962020706D
:10718000304600F023F9012070BD1F4805780078D3
:10719000401C1D490870304600F018F9002020708E
:1071A0002846F1E72DE9F04704460E461746984673
:1071B0004FF0000900F006F98146FF2C02D10F487C
:1071C000056802E00E4850F8245005F14C0040F8E4
:1071D0002670484600F0FAF8002088F80000BDE864
:1071E000F08710B505480068FEF70CFCFF20FFF79C
:1071F00053FD10BD5A0300205D03002064030020EE
:1072000058290020590300207503002070B5054659
:1072100000266348007800B170BD6248007800B174
:10722000FAE71DB300F0CEF806465F48006890F814
:1072300030405E48005D5C49096891F83110884330
:107240005A4908550846005D40B95748006890F80B
:1072500032105748007888435549087052480068F2
:107260008562304600F0B2F8FEF7DFFC00BFD3E7DE
:107270002DE9F04105460E4617461C464848007861
:1072800010B15520BDE8F0814648007808B13220A1
:10729000F8E74FF47A7060434FF47A71B0FBF1F184
:1072A0004FF461606843C6EB061200EB820038447D
:1072B00000EB4002C2EBC01001EBC0084046FFF7F4
:1072C000A5FF0020DEE770B505460026122D01DB84
:1072D0002A2070BD00F076F80646364850F8254062
:1072E00024B9304600F072F84320F2E7012C04D1B3
:1072F000304600F06BF84320EBE7A06A20B9304637
:1073000000F064F85020E4E70020A06294F82C001C
:1073100000F0370040B114F82C0F20F03700207037
:10732000012060702C3C02E0002084F82D0094F8CD
:107330002C0000F00800A8B93034A0781C49097866
:1073400008431B49087020781849085C6178084395
:1073500014F83019154A5054304600F037F8FEF74B
:1073600064FC02E0304600F031F80020B1E770B56F
:10737000002500F027F805460F480468284600F06D
:1073800025F8204670BD70B50446002500F01AF8B7
:10739000054609480460284600F018F870BD000052
:1073A0005503002056030020640300205A030020E8
:1073B00059030020582900207803002072B6704736
:1073C00062B67047EFF3108072B6704780F3108892
:1073D00070471F484FF0FF010170002080F30988BB
:1073E0001C48016881F308881B48012101701B4873
:1073F0004FF08051016062B6FEE718484FF08051AF
:107400000160704715484FF080510160704772B6B7
:10741000EFF3098028B1203880E8F00F104909689F
:10742000086000B50F4880475DF804EB0E480F492F
:107430000A7802700A480E490A680260106890E8EB
:10744000F00F203080F309884EF0040E62B67047CA
:1074500022ED00E03C0300205D03002004ED00E08D
:1074600064030020A15A000857030020580300209D
:107470006C03002070B5044600262078012801D056
:10748000002070BDFFF79EFF064665680020606023
:107490003046FFF79BFF2846F3E770B50546002608
:1074A000E848007808B1002070BDFFF78BFF064662
:1074B000E5480468006820B1E34800684068E24994
:1074C00008603046FFF782FF4CB101202070002099
:1074D00020816560DDA020612046FFF799F82046F5
:1074E000E2E72DE9F0470446884615464FF00009CB
:1074F0002078012804D0012028702046BDE8F087BC
:10750000D048007818B10F2028702046F6E7FFF722
:1075100059FF8146A07A08B1012700E00027B8F1A1
:10752000000F03D0B8F1010F3AD119E08FB9C7A00D
:10753000206100202070C448006860600020208125
:10754000C14804604846FFF741FF0020287000262C
:1075500005E04846FFF73AFF49202870264626E016
:1075600005E002231A4600212046FEF7D9FFA07A43
:107570000028F6D1B5A0206100202070B248006834
:10758000606000202081B04804604846FFF71EFF7D
:10759000012F01D1FEF749FB00202870002606E0EC
:1075A0004846FFF713FF07202870264600BF00BF9C
:1075B0003046A3E72DE9F04105460F4614464FF04B
:1075C00000082878012804D0012020700020BDE8A0
:1075D000F0819C48007818B1022020700020F6E766
:1075E0009B48007818B10D2020700020EFE7FFF7CE
:1075F000E9FE80466E6846B1002068604046FFF7AD
:10760000E5FE002020703046E1E79248006890F8DF
:107610002C0040F002008F49096881F82C000020FE
:107620008C49096881F82D008A48006887622846DD
:10763000FEF7B6FF4046FFF7C9FEFEF7F6FAFFF782
:10764000C1FE80468348006890F82D0020B10128D3
:107650000DD002280AD105E07E480068466A002065
:1076600020700DE000260E20207009E000BF2946A2
:1076700078480068FEF73FFF00260A20207000BF10
:1076800000BF00207349096881F82C00714909681E
:1076900081F82D006F490968C8616E490968086260
:1076A0006C49096848624046FFF790FE30468EE715
:1076B0002DE9F04104460F4615464FF000082078AA
:1076C000012804D0012028700020BDE8F081FFF7D8
:1076D00079FE8046A07A20B300267FB1012F0CD11D
:1076E00007E002231A4600212046FEF719FF701C0E
:1076F000C6B2A07A0028F4D109E000BF02231A46DE
:1077000000212046FEF70CFF701CC6B200BF00BF70
:107710004046FFF75BFEFEF788FA0E2028703046E1
:10772000D3E74046FFF752FE0020287000BFCCE7A9
:1077300070B504460D4600262078012801D00120AE
:1077400070BDFFF73FFE0646A07A60B1002302221B
:1077500029462046FEF7E4FE3046FFF737FEFEF7E7
:1077600064FA0020ECE7606820B13046FFF72EFE97
:107770001420E5E765603046FFF728FE0020DFE7CC
:107780002DE9F04104460E461546002720780128D1
:1077900002D00120BDE8F081FFF714FE0746A07A71
:1077A000E8B105F0010050B105E0002302223146A6
:1077B0002046FEF7B5FEA07A0028F6D105E00023AA
:1077C000022231462046FEF7ABFE3846FFF7FEFDAB
:1077D00005F0040008B9FEF728FA0020DAE760682F
:1077E00020B13846FFF7F2FD1420D3E76660384633
:1077F000FFF7ECFD0020CDE72DE9F04704460D46EC
:107800004FF000092078012802D00120BDE8F08760
:10781000FFF7D8FD8146A07AE87104F10B0705F166
:107820000408002605E017F8010B08F8010B701C8E
:10783000C6B2032EF7D3606828604846FFF7C6FD3E
:107840000020E3E755030020440300203F00000030
:10785000560300206403002010B5FFF7AFFD10BDF4
:1078600000B585B0684600F0BFFC019805B000BDCA
:1078700070B5FFF7F5FF04464FF47A70B4FBF0F5EE
:107880002846FEF721F970BD08B54FF4C06000F03E
:10789000EFFD25208DF8000001208DF8010000206B
:1078A0008DF8020001208DF80300684600F0E5FD28
:1078B00026208DF8000001208DF801008DF80200CF
:1078C0008DF80300684600F0D8FD27208DF80000F1
:1078D00001208DF8010002208DF8020001208DF8B2
:1078E0000300684600F0C9FD34208DF80000012037
:1078F0008DF8010003208DF8020001208DF80300AF
:1079000035208DF8000001208DF8010004208DF84D
:10791000020001208DF8030008BD7FB505460C4626
:10792000684600F0BFFE00950020ADF80400ADF8F9
:107930000600ADF80800ADF80C000C20ADF80A0008
:107940006946AA4800F045FE012240F22551A748A9
:1079500000F0D7FE0121A54800F0C7FE684600F000
:10796000A1FE00940020ADF804004FF40050ADF8E3
:1079700006000020ADF80800ADF80C000C20ADF8B2
:107980000A0069469A4800F024FE012240F225517F
:10799000974800F0B6FE0121954800F0A6FE684623
:1079A00000F080FE00940020ADF80400ADF8060061
:1079B000ADF80800ADF80C000C20ADF80A006946DF
:1079C0008C4800F006FE012240F22551894800F063
:1079D00098FE0121874800F088FE684600F062FEAC
:1079E00000940020ADF80400ADF80600ADF80800E2
:1079F000ADF80C000C20ADF80A0069467E4800F096
:107A0000E8FD684600F04EFE00940020ADF804004A
:107A1000ADF80600ADF80800ADF80C000C20ADF88C
:107A20000A006946754800F0D4FD7FBD08B54FF4E3
:107A30000070ADF8000018208DF8030003208DF8C9
:107A4000020069466E4800F045F94FF48060ADF8D9
:107A5000000004208DF803006946694800F03AF9F7
:107A60000420ADF8000018208DF8030003208DF8E5
:107A700002006946624800F02DF90820ADF80000C8
:107A800004208DF8030069465D4800F023F94FF4A7
:107A90008060ADF8000018208DF8030003208DF8F9
:107AA00002006946574800F015F94FF40060ADF840
:107AB000000004208DF803006946524800F00AF9DE
:107AC0004FF48060ADF8000018208DF8030003200B
:107AD0008DF8020069464C4800F0FCF84FF4006055
:107AE000ADF8000004208DF803006946464800F018
:107AF000F1F84FF48050ADF8000018208DF8030025
:107B000003208DF8020069463F4800F0E3F80420A6
:107B1000ADF800008DF8030069463C4800F0DAF843
:107B200008BD08B501213A4800F0A5F94FF400401E
:107B3000ADF8000010208DF8030003208DF802003E
:107B400069462F4800F0C6F84FF400412C4800F079
:107B50006EF94FF48070ADF8000010208DF803002E
:107B600003208DF802006946264800F0B3F84FF470
:107B70008071244800F05BF908BD10B50121042094
:107B800000F011FC0121082000F00DFC0121102063
:107B900000F009FC0121202000F005FC012108462D
:107BA00000F001FC0121880300F0FDFB01214804E5
:107BB00000F006FC0121880400F002FC0121C80449
:107BC00000F0FEFB0121080500F0FAFB10BD10B526
:107BD000FFF7D3FFFFF7A5FFFFF728FF4FF416517C
:107BE0000846FFF79AFEFFF74FFE10BD0038014030
:107BF0000044004000480040004C0040005000405D
:107C000000080140000C0140001001400014014038
:107C10000002300010B50446CC48844208D101214E
:107C2000042000F0E7FB0021042000F0E3FB46E025
:107C3000C748844208D10121082000F0DBFB002165
:107C4000082000F0D7FB3AE0C248844208D1012165
:107C5000102000F0CFFB0021102000F0CBFB2EE025
:107C6000BD48844208D10121202000F0C3FB00213F
:107C7000202000F0BFFB22E0B848844208D1012157
:107C8000402000F0B7FB0021402000F0B3FB16E0DD
:107C9000B348844208D10121802000F0ABFB0021D1
:107CA000802000F0A7FB0AE0AE48844207D1012102
:107CB000801500F09FFB0021A01500F09BFB10BD7C
:107CC00010B50121084600F095FB0021012000F0CD
:107CD00091FB10BD2DE9F041024600250026002051
:107CE00000230024002791F803C00CF00F0591F841
:107CF00003C00CF0100CBCF1000F03D091F802C0CF
:107D00004CEA050591F800C0BCF1000F31D01468B1
:107D100000202BE04FF0010C0CFA00F3B1F800C08A
:107D20000CEA03069E4220D183004FF00F0C0CFAA0
:107D300003F7BC4305FA03FC4CEA040491F803C0C2
:107D4000BCF1280F06D14FF0010C0CFA00FCC2F870
:107D500014C00AE091F803C0BCF1480F05D14FF000
:107D6000010C0CFA00FCC2F810C0401C0828D1D34A
:107D70001460B1F800C0BCF1FF0F34DD546800207E
:107D80002EE000F1080C4FF0010808FA0CF3B1F8EE
:107D900000C00CEA03069E4221D183004FF00F0C75
:107DA0000CFA03F7BC4305FA03FC4CEA040491F80F
:107DB00003C0BCF1280F05D100F1080C08FA0CF83B
:107DC000C2F8148091F803C0BCF1480F07D100F14C
:107DD000080C4FF0010808FA0CF8C2F81080401C9B
:107DE0000828CED35460BDE8F0814FF6FF710180C2
:107DF000022181700421C1707047024600209368FF
:107E00000B400BB1012000E000207047014688685C
:107E100080B2704702460020D3680B400BB10120AE
:107E200000E0002070470146C86880B270470161D9
:107E30007047416170470AB1016100E041617047DC
:107E4000C16070474FF480320A4382618161826170
:107E500082698269704702460020434B18684FF6DA
:107E60008073184040EA021008433F4B1860704787
:107E70003E49C8617047F0B50A460023002400213E
:107E8000002500F00046B6F1004F02D1364EF169F0
:107E900001E0354E7168C0F3034583B200F440162B
:107EA000B6F5401F08D121F070612F4E766826F09C
:107EB00070662D4F7E6012E000F48016B6F5801FCC
:107EC00006D1032606FA05F4A14341F0706106E0ED
:107ED000460D360103FA06F6B14341F0706122B156
:107EE000460D360103FA06F6314300F00046B6F1BE
:107EF000004F02D11C4EF16101E01B4E7160F0BDDC
:107F000030B500228B071C0F0F2303FA04F2164B27
:107F100008338C1053F824309343134C08348D10DD
:107F200044F8253023468C1053F824308C07240F56
:107F300000FA04F423430C4C08348D1044F8253027
:107F400030BD0A49DC31086070470000000801407C
:107F5000000C0140001001400014014000180140D5
:107F6000001C0140002001400000014000002042B0
:107F7000FB48006840F00100F94908600846406885
:107F8000F8490840F649486008460068F649084044
:107F9000F34908600846006820F48020086008461D
:107FA000406820F4FE0048600846006820F0A050B9
:107FB00008604FF47F0088600020C8627047E8497D
:107FC000096821F48031E64A11601146096821F4FC
:107FD00080211160B0F5803F03D0B0F5802F0ED125
:107FE00006E0DF49096841F48031DD4A116007E0AD
:107FF000DB49096841F4A021D94A116000E000BFC3
:1080000000BF704710B501460022002300204A112E
:10801000012A02D1D24C236806E0022A02D1D04CB8
:10802000236A01E0CE4C636A01F01F0201249440F0
:108030001C400CB1012000E0002010BD38B500202C
:1080400000900024002500BF3120FFF7DBFF05462C
:108050000098401C00900098B0F5A06F01D0002D52
:10806000F2D03120FFF7CEFF08B1012400E0002458
:10807000204638BD01460020B94A106820F0F800BB
:1080800040EAC10010607047B84908607047024676
:108090000020B34B586820F4741042EA01031843DF
:1080A000AF4B58607047B1490866704702460020E0
:1080B000AB4BD86AAE4B184042EA01031843A84BB9
:1080C000D862704701460020A54AD06A20F0F0002F
:1080D0000843D062704701460020A14AD06A20F4CC
:1080E00070600843D0627047A049886670470146B7
:1080F00000209B4AD06A20F470400843D062704749
:108100009A490867704701460020954A506820F058
:1081100003000843506070479148406800F00C002D
:108120007047014600208E4A506820F0F000084356
:108130005060704701460020894A506820F4E06092
:1081400008435060704701460020854A506820F47B
:10815000605040EAC1005060704729B1804A527AAD
:1081600002437F4B5A7204E07D4A527A82437C4B31
:108170005A7270477D49D831086070470146002027
:10818000774A506820F4404008435060704779496E
:10819000086070477749091D086070470021704AE0
:1081A000203211706E4A82F82010012802D0042873
:1081B0000AD104E001216A4A2032117005E005214C
:1081C000674A2032117000E000BF00BF70476A4963
:1081D000086070476249096A0143614A1162704749
:1081E00065494439086070472DE9F04100210022BB
:1081F000002500230026002400278C46DFF860813C
:10820000D8F8048008F00C0121B1042907D008290E
:1082100059D109E0DFF86481C0F8008058E0DFF848
:108220005C81C0F8008053E0DFF83481D8F8048026
:1082300008F47012DFF82881D8F8048008F480353B
:10824000920C0D2A01D0921C00E0062235B9DFF80D
:10825000308102FB08F8C0F8008033E0DFF80081CD
:10826000D8F82C8008F48036DFF8F480D8F82C8019
:1082700008F00F0808F1010446B9DFF80081B8FBE7
:10828000F4F808FB02F8C0F800801BE0DFF8D080AB
:10829000D8F82C80C8F3031808F10107DFF8C08074
:1082A000D8F82C80C8F3032808F1020CDFF8CC8042
:1082B000B8FBF7F808FB0CF8B8FBF4F808FB02F879
:1082C000C0F8008004E0DFF8B480C0F8008000BF90
:1082D00000BFDFF88C80D8F8048008F0F0010909AD
:1082E000DFF8A08018F80130D0F8008028FA03F8F1
:1082F000C0F80480DFF86880D8F8048008F4E061F2
:10830000090ADFF8808018F80130D0F8048028FAD4
:1083100003F8C0F80880DFF84880D8F8048008F433
:108320006051C90ADFF85C8018F80130D0F8048089
:1083300028FA03F8C0F80C80DFF82480D8F804800D
:1083400008F44041890BDFF8408018F80130D0F87C
:108350000C80B8FBF3F8C0F81080BDE8F081000095
:10836000001002400000FFF0FFFFF6FE0000424256
:10837000F0FFFEFFC40542428004424200127A0030
:1083800000093D007C0300208C03002029B1354A00
:1083900052690243334B5A6104E0324A52698243C4
:1083A000304B5A61704729B12E4A926902432D4BD6
:1083B0009A6104E02B4A926982432A4B9A61704782
:1083C00029B1284AD2690243264BDA6104E0254AE2
:1083D000D2698243234BDA61704729B1214A926AFC
:1083E0000243204B9A6204E01E4A926A82431D4B6C
:1083F0009A62704729B11B4AD2680243194BDA606E
:1084000004E0184AD2688243164BDA60704729B1FB
:10841000144A12690243134B1A6104E0114A1269AB
:108420008243104B1A6170470F49086070470F492B
:10843000C86470470B49C87170470A48406A40F0E9
:10844000807008494862704701460020054A9268DA
:108450000A400AB1012000E00020704701498872FB
:1084600070470000001002404004424200004242B7
:1084700031490143314A1160704770B50021002332
:108480000F22C47804B32D4C246804F4E064C4F5CE
:10849000E064210AC1F10403CA40447804FA03F1FC
:1084A0008478144021430901254C0678A1550478AD
:1084B00004F01F050124AC4005786D11AD0005F1F5
:1084C000E025C5F8004109E0047804F01F05012407
:1084D000AC401C4D0678761145F8264070BD1A4A0E
:1084E0000A400243154B1B1F1A60704739B1134AEB
:1084F000121D12680243114B1B1D1A6006E00F4A41
:10850000121D126882430D4B1B1D1A607047042810
:1085100008D14FF0E021096941F004014FF0E02259
:10852000116107E04FF0E021096921F004014FF0EB
:10853000E0221161704700000000FA050CED00E038
:1085400000E400E080E100E080FFFF1F10B504467A
:10855000FB48844209D101218803FFF74BFF00212A
:108560004FF48040FFF746FF32E0F648844209D1DD
:1085700001214804FFF74BFF00214FF40030FFF7C3
:1085800046FF25E0F048844209D101218804FFF725
:108590003EFF00214FF48020FFF739FF18E0EB4841
:1085A000844209D10121C804FFF731FF00214FF4B3
:1085B0000020FFF72CFF0BE0E548844208D10121A1
:1085C0000805FFF724FF00214FF48010FFF71FFF7D
:1085D00010BD2DE9F04786B005460E460024A246A0
:1085E00000BFA1460027B08900B100BF2F462C8AEA
:1085F0004CF6FF700440F08804432C82AC894EF6A0
:10860000F3100440B088318908437189084304435A
:10861000AC81AC8A4FF6FF400440B0890443AC8281
:1086200001A8FFF7E1FDC648874202D1DDF810A09E
:1086300001E0DDF80CA0A88900F4004040B10AEB8D
:10864000CA0000EB0A1031684900B0FBF1F807E0FE
:108650000AEBCA0000EB0A1031688900B0FBF1F8A0
:108660006420B8FBF0F004012009642101FB1089AB
:10867000A88900F4004040B1322000EBC900B0FBF3
:10868000F1F000F00700044308E0322000EB09108D
:108690006421B0FBF1F000F00F0004432C8106B020
:1086A000BDE8F0874FF41651016000218180C18040
:1086B00001810C21418100218181704710B5024662
:1086C0000020108A4FF2FF0318400B884C88234388
:1086D0008C882343CC8823431843108210BD00218B
:1086E000018041808180C180704721B1828942F43C
:1086F0000052828104E082894DF6FF731A40828124
:108700007047F0B50346002400260025002040F6FF
:108710006A17B94200D100BF1846C1F3421401F0F4
:108720001F06012707FA06F5012C01D10C3004E0E1
:10873000022C01D1103000E014301AB107682F4329
:10874000076002E00768AF430760F0BD1AB1838A93
:108750000B43838202E0838A8B4383827047028AC1
:108760004FF6F0731A400282028A0A43028270476F
:1087700082894FF2FF731A40828182890A43828183
:10878000704721B1828942F00202828104E082892D
:108790004FF6FD731A4082817047028A4FF6DF73ED
:1087A0001A400282028A0A430282704721B1028A79
:1087B00042F48042028204E0028A4BF6FF731A40C0
:1087C00002827047C1F308028280704701468888A0
:1087D000C0F308007047818941F001018181704731
:1087E000028BD2B20283028B42EA012202837047DB
:1087F000028B02F47F420283028B0A43028370479A
:1088000021B1828A42F02002828204E0828A4FF6FD
:10881000DF731A408282704721B1828A42F01002CF
:10882000828204E0828A4FF6EF731A408282704798
:1088300021B1828A42F00802828204E0828A4FF6E5
:10884000F7731A408282704721B1828942F4004254
:10885000828103E08289C2F30E028281704721B1D6
:10886000828A42F40062828204E0828A4FF2FF73BD
:108870001A4082827047828A4FF6FB731A408282C6
:10888000828A0A438282704721B1828A42F00202C0
:10889000828204E0828A4FF6FD731A40828270471A
:1088A00002460020B1F5007F00D100BF13880B40C5
:1088B0000BB1012000E00020704701F40072B2F516
:1088C000007F00D100BFCA430280704770B50246E6
:1088D000002400230025002040F66A16B14200D192
:1088E00000BFC1F3421501F01F03012606FA03F38E
:1088F000012D02D19689334006E0022D02D1168A5D
:10890000334001E0968A33400C12012606FA04F443
:108910001688344013B10CB1012000E0002070BD76
:1089200010B50022002340F66A14A14200D100BF16
:108930000A1201249440A3B2DC43048010BD00005D
:10894000003801400044004000480040004C004016
:108950000050004080EA010210B502F000434000E0
:1089600022D04A001FD0010E01EB1261C0F3560065
:10897000C2F3560240F4000042F40002A0FB0220C1
:1089800000047F39140400D0401C50EA124001D486
:108990004000491EC2B20C0604EBD010401C400837
:1089A000802A02D003E0002010BD20F00100002941
:1089B00000DA0020184310BD96230022114600F073
:1089C0001DB820F00040C10DC0F3160040F40000B7
:1089D0007F2901DA00207047962903DCC1F1960156
:1089E000C84070479639884070470029A8BF704733
:1089F000401C490008BF20F00100704710B4B0FAD5
:108A000080FC00FA0CF050EA010404BF10BC70476F
:108A100049B1CCF1200421FA04F411FA0CF118BF89
:108A2000012121430843A3EB0C01CB1D4FEA006158
:108A30004FEA102042BF002010BC704700EBC3502B
:108A400010440029A4BF10BC7047401C490008BF57
:108A500020F0010010BC7047064C074D06E0E068AE
:108A600040F0010394E8070098471034AC42F6D375
:108A7000FBF772FB608E0008808E000870B58C18C2
:108A800010F8015B15F0070301D110F8013B2A1122
:108A900006D110F8012B03E010F8016B01F8016B0F
:108AA0005B1EF9D12B0705D40023521E0DD401F80B
:108AB000013BFAE710F8013BCB1A921C03E013F8D4
:108AC000015B01F8015B521EF9D5A142D8D3002009
:108AD00070BD000010B57E2016490870C81CFCF758
:108AE00039FE14489730FCF751FE124812490860CD
:108AF0000020104981F8A20003201049087010E0FE
:108B00000C4890F8A2000C4909680C4A1278895C5C
:108B10000844084981F8A20008480078401C074929
:108B2000087006480078A228EADB0D20014981F888
:108B3000A30010BD900900201400002018000020A0
:108B400002E008C8121F08C1002AFAD17047704716
:108B5000002001E001C1121F002AFBD1704700C1B3
:108B6000814001C0804101C0804100C1814001C0FD
:108B7000804100C1814000C1814001C0804101C0ED
:108B8000804100C1814000C1814001C0804100C1DD
:108B9000814001C0804101C0804100C1814001C0CD
:108BA000804100C1814000C1814001C0804100C1BD
:108BB000814001C0804101C0804100C1814000C1AD
:108BC000814001C0804101C0804100C1814001C09D
:108BD000804100C1814000C1814001C0804101C08D
:108BE000804100C1814000C1814001C0804100C17D
:108BF000814001C0804101C0804100C1814000C16D
:108C0000814001C0804101C0804100C1814001C05C
:108C1000804100C1814000C1814001C0804100C14C
:108C2000814001C0804101C0804100C1814001C03C
:108C3000804100C1814000C1814001C0804101C02C
:108C4000804100C1814000C1814001C0804100C11C
:108C5000814001C0804101C0804100C1814000C00D
:108C6000C101C30302C2C60607C705C5C404CC0CB4
:108C70000DCD0FCFCE0E0ACACB0BC90908C8D81824
:108C800019D91BDBDA1A1EDEDF1FDD1D1CDC14D434
:108C9000D515D71716D6D21213D311D1D010F03064
:108CA00031F133F3F23236F6F737F53534F43CFC74
:108CB000FD3DFF3F3EFEFA3A3BFB39F9F83828E824
:108CC000E929EB2B2AEAEE2E2FEF2DEDEC2CE424F4
:108CD00025E527E7E62622E2E323E12120E0A06064
:108CE00061A163A3A26266A6A767A56564A46CAC34
:108CF000AD6DAF6F6EAEAA6A6BAB69A9A86878B8A4
:108D0000B979BB7B7ABABE7E7FBF7DBDBC7CB474B3
:108D100075B577B7B67672B2B373B17170B0509063
:108D200091519353529296565797559594549C5CF3
:108D30005D9D5F9F9E5E5A9A9B5B995958988848A3
:108D400049894B8B8A4A4E8E8F4F8D4D4C8C448473
:108D500085458747468682424383418180400000A3
:108D600001000200010003000100020001000400F4
:108D700001000200010003000100020001000500E3
:108D800001000200010003000100020001000400D4
:108D900001000200010003000100020001000600C2
:108DA00001000200010003000100020001000400B4
:108DB00001000200010003000100020001000500A3
:108DC0000100020001000300010002000100040094
:108DD0000100020001000300010002000100070081
:108DE0000100020001000300010002000100040074
:108DF0000100020001000300010002000100050063
:108E00000100020001000300010002000100040053
:108E10000100020001000300010002000100060041
:108E20000100020001000300010002000100040033
:108E30000100020001000300010002000100050022
:108E40000100020001000300010002000100040013
:108E50000100020001000300010002000100000007
:108E6000808E000800000020900300007C8A00082B
:108E7000708F000890030020B82F0000508B00086E
:108E80001184A24A04800901020304060708091498
:108E90001DFE1312033201121C120229271A1F0E83
:108EA00032061A210E32071A360E320B1A422832B7
:108EB000111A4F08026F1423803F2320411CC8421F
:108EC0008FA6211A9084213A91B0129232053A93DA
:108ED000B43A94B212953208129629E51297320AE2
:108EE0003A98C21299320C3A9A06129B320D12A687
:108EF000320E3AA7063AA8063AA9063AAB063AACA9
:108F0000063AAD063AAE063AAF063AB0063AB106B0
:108F10003AB4063ABF063AC2063AC7063AC8063A13
:108F2000C9063AD4063AD6063ADB063AF9063AFBBF
:108F3000063AFC062B0E01063A19063A38063A396B
:108F4000063A3A063A4C063A50063A51063A520662
:108F50003A57063A690601FF01510B4801024A2BB4
:108F600003040400090006070809020406080000BB
:04000005080041515D
:00000001FF
